export default {
  txMempool: {
    txid: 'db75d53c585d4cc67b675a71981dba93155a0829422ea26033dc9f879c6da961',
    version: 2,
    vin: [
      {
        txid: '1f381f408fe1b90b797de0bcfc4c6d58b8b9a0f27eb4cd7505e58851252957ab',
        vout: 1,
        sequence: 4294967293,
        n: 0,
        addresses: ['19BJg2jSvz8pHiz7kKSgdp69iVV5CnAvzB'],
        isAddress: true,
        value: '4098889',
        hex: '47304402202c2163c8f6e7d0f63da7c8bd3c7faa320efef82a8b14d9633e6a4053525a0abf02202aab7f8d7815a6065c9b0dcef2fe0b5d1aa3e238ccee7be7153f2b060c887dcd0121032d10ee4bd6d1577e28ccddfad96cbf1eee64ccaf05eb54949fadfcfb8f252bca'
      }
    ],
    vout: [
      {
        value: '184600',
        n: 0,
        hex: '76a9149905724deda6ad6b005cb67de0770ed82f76acc488ac',
        addresses: ['1Ex6unDe3gt4twj8GDHTutUbKvvHzMPj3e'],
        isAddress: true
      },
      {
        value: '3908177',
        n: 1,
        hex: '76a91459b3eb23353e6b50b183bc9e506115484a2f37d988ac',
        addresses: ['19BJg2jSvz8pHiz7kKSgdp69iVV5CnAvzB'],
        isAddress: true
      }
    ],
    blockHeight: -1,
    confirmations: 0,
    blockTime: 1638480625,
    value: '4092777',
    valueIn: '4098889',
    fees: '6112',
    hex: '0200000001ab5729255188e50575cdb47ef2a0b9b8586d4cfcbce07d790bb9e18f401f381f010000006a47304402202c2163c8f6e7d0f63da7c8bd3c7faa320efef82a8b14d9633e6a4053525a0abf02202aab7f8d7815a6065c9b0dcef2fe0b5d1aa3e238ccee7be7153f2b060c887dcd0121032d10ee4bd6d1577e28ccddfad96cbf1eee64ccaf05eb54949fadfcfb8f252bcafdffffff0218d10200000000001976a9149905724deda6ad6b005cb67de0770ed82f76acc488ac51a23b00000000001976a91459b3eb23353e6b50b183bc9e506115484a2f37d988ac00000000',
    rbf: true,
    coinSpecificData: {
      txid: 'db75d53c585d4cc67b675a71981dba93155a0829422ea26033dc9f879c6da961',
      hash: 'db75d53c585d4cc67b675a71981dba93155a0829422ea26033dc9f879c6da961',
      version: 2,
      size: 225,
      vsize: 225,
      weight: 900,
      locktime: 0,
      vin: [
        {
          txid: '1f381f408fe1b90b797de0bcfc4c6d58b8b9a0f27eb4cd7505e58851252957ab',
          vout: 1,
          scriptSig: {
            asm: '304402202c2163c8f6e7d0f63da7c8bd3c7faa320efef82a8b14d9633e6a4053525a0abf02202aab7f8d7815a6065c9b0dcef2fe0b5d1aa3e238ccee7be7153f2b060c887dcd[ALL] 032d10ee4bd6d1577e28ccddfad96cbf1eee64ccaf05eb54949fadfcfb8f252bca',
            hex: '47304402202c2163c8f6e7d0f63da7c8bd3c7faa320efef82a8b14d9633e6a4053525a0abf02202aab7f8d7815a6065c9b0dcef2fe0b5d1aa3e238ccee7be7153f2b060c887dcd0121032d10ee4bd6d1577e28ccddfad96cbf1eee64ccaf05eb54949fadfcfb8f252bca'
          },
          sequence: 4294967293
        }
      ],
      vout: [
        {
          value: 0.001846,
          n: 0,
          scriptPubKey: {
            asm: 'OP_DUP OP_HASH160 9905724deda6ad6b005cb67de0770ed82f76acc4 OP_EQUALVERIFY OP_CHECKSIG',
            hex: '76a9149905724deda6ad6b005cb67de0770ed82f76acc488ac',
            reqSigs: 1,
            type: 'pubkeyhash',
            addresses: ['1Ex6unDe3gt4twj8GDHTutUbKvvHzMPj3e']
          }
        },
        {
          value: 0.03908177,
          n: 1,
          scriptPubKey: {
            asm: 'OP_DUP OP_HASH160 59b3eb23353e6b50b183bc9e506115484a2f37d9 OP_EQUALVERIFY OP_CHECKSIG',
            hex: '76a91459b3eb23353e6b50b183bc9e506115484a2f37d988ac',
            reqSigs: 1,
            type: 'pubkeyhash',
            addresses: ['19BJg2jSvz8pHiz7kKSgdp69iVV5CnAvzB']
          }
        }
      ],
      hex: '0200000001ab5729255188e50575cdb47ef2a0b9b8586d4cfcbce07d790bb9e18f401f381f010000006a47304402202c2163c8f6e7d0f63da7c8bd3c7faa320efef82a8b14d9633e6a4053525a0abf02202aab7f8d7815a6065c9b0dcef2fe0b5d1aa3e238ccee7be7153f2b060c887dcd0121032d10ee4bd6d1577e28ccddfad96cbf1eee64ccaf05eb54949fadfcfb8f252bcafdffffff0218d10200000000001976a9149905724deda6ad6b005cb67de0770ed82f76acc488ac51a23b00000000001976a91459b3eb23353e6b50b183bc9e506115484a2f37d988ac00000000'
    }
  },
  tx: {
    txid: 'db75d53c585d4cc67b675a71981dba93155a0829422ea26033dc9f879c6da961',
    version: 2,
    vin: [
      {
        txid: '1f381f408fe1b90b797de0bcfc4c6d58b8b9a0f27eb4cd7505e58851252957ab',
        vout: 1,
        sequence: 4294967293,
        n: 0,
        addresses: ['19BJg2jSvz8pHiz7kKSgdp69iVV5CnAvzB'],
        isAddress: true,
        value: '4098889',
        hex: '47304402202c2163c8f6e7d0f63da7c8bd3c7faa320efef82a8b14d9633e6a4053525a0abf02202aab7f8d7815a6065c9b0dcef2fe0b5d1aa3e238ccee7be7153f2b060c887dcd0121032d10ee4bd6d1577e28ccddfad96cbf1eee64ccaf05eb54949fadfcfb8f252bca'
      }
    ],
    vout: [
      {
        value: '184600',
        n: 0,
        hex: '76a9149905724deda6ad6b005cb67de0770ed82f76acc488ac',
        addresses: ['1Ex6unDe3gt4twj8GDHTutUbKvvHzMPj3e'],
        isAddress: true
      },
      {
        value: '3908177',
        n: 1,
        spent: true,
        hex: '76a91459b3eb23353e6b50b183bc9e506115484a2f37d988ac',
        addresses: ['19BJg2jSvz8pHiz7kKSgdp69iVV5CnAvzB'],
        isAddress: true
      }
    ],
    blockHash: '000000000000000000052c1da9a304a71ce34bd95cfff9a75bcb20c733d5352f',
    blockHeight: 712288,
    confirmations: 2,
    blockTime: 1638480779,
    value: '4092777',
    valueIn: '4098889',
    fees: '6112',
    hex: '0200000001ab5729255188e50575cdb47ef2a0b9b8586d4cfcbce07d790bb9e18f401f381f010000006a47304402202c2163c8f6e7d0f63da7c8bd3c7faa320efef82a8b14d9633e6a4053525a0abf02202aab7f8d7815a6065c9b0dcef2fe0b5d1aa3e238ccee7be7153f2b060c887dcd0121032d10ee4bd6d1577e28ccddfad96cbf1eee64ccaf05eb54949fadfcfb8f252bcafdffffff0218d10200000000001976a9149905724deda6ad6b005cb67de0770ed82f76acc488ac51a23b00000000001976a91459b3eb23353e6b50b183bc9e506115484a2f37d988ac00000000'
  }
}
